S01700004763634170706C69636174696F6E322E737265635A
S11300000C9434000C9453000C9451000C94510043
S11300100C9451000C9451000C9451000C94510018
S11300200C9451000C9451000C9451000C94510008
S11300300C9451000C9451000C9451000C945100F8
S11300400C9451000C9451000C9451000C945100E8
S11300500C9451000C9451000C9451000C945100D8
S11300600C9451000C94510011241FBECFEFD8E022
S1130070DEBFCDBF12E0A0E0B1E0E6E6FEE002C0E4
S113008005900D92AE37B107D9F722E0AEE7B2E0A2
S113009001C01D92A838B207E1F70E9441010C94F7
S11300A031070C9400001F920F920FB60F92112487
S11300B08F9381E080937E028F910F900FBE0F90FB
S11300C01F90189584E480937C0085E880937A00DF
S11300D008951092800210927F0224E0EAE7F0E093
S11300E0A8E7B0E0808180648083808186FDFDCFB5
S11300F08D919C91119740917F0250918002840FC1
S1130100951F9093800280937F023FEF80E792E0F7
S1130110315080409040E1F700C00000215011F7B9
S113012080917F0290918002969587959695879508
S1130130969587959093800280937F020895CF933C
S1130140DF931F92CDB7DEB786E291E00E941704D9
S113015084E591E00E94170441E050E0BE016F5F26
S11301607F4F80E00E94C70189811F928F9380E8AE
S113017091E09F938F930E94010441E050E0BE01FF
S11301806F5F7F4F81E00E94C70189811F928F9327
S113019081E991E09F938F930E94010441E050E034
S11301A0BE016F5F7F4F82E00E94C70189811F9269
S11301B08F9381EA91E09F938F930E94010441E021
S11301C050E0BE016F5F7F4F84E00E94C7018981C8
S11301D01F928F9384EB91E09F938F930E9401046D
S11301E041E050E0BE016F5F7F4F85E00E94C70190
S11301F089811F928F9388EC91E09F938F930E9443
S1130200010441E050E0BE016F5F7F4F86E00E9431
S1130210C70189811F928F9388ED91E09F938F93FB
S11302200E94010441E050E0BE016F5F7F4F87E010
S11302300E94C70189811F928F938AEE91E09F9358
S11302408F930E94010441E050E0BE016F5F7F4F35
S11302508DE10E94C70189811F928F938BEF91E0FA
S11302609F938F930E9401040FB6F894DEBF0FBED4
S1130270CDBF8DE092E00E9417040F90DF91CF91E3
S11302800895CF93DF93CDB7DEB7A0970FB6F89458
S1130290DEBF0FBECDBF88E0EAE3F2E0DE011196D7
S11302A001900D928A95E1F70E94E7030E94CA012A
S11302B00E949F000E94620082E492E00E94170460
S11302C00E94EF0282E592E00E94170410928002DD
S11302D010927F020F2EF4EFCF2EDD24D394F02D55
S11302E00F2EF1E6EF2EF2E0FF2EF02D8E010F5FC0
S11302F01F4F0E94690020917F02309180022C9D43
S1130300C0012D9D900D3C9D900D1124892F869543
S1130310869580937F02109280021F928F93FF92A2
S1130320EF921F930F930E944704C8010E94FA02A0
S11303300F900F900F900F900F900F90DACFDF92E5
S1130340EF92FF920F931F93CF93DF937B018A0168
S11303502A980E94C603D82E0115110551F0E70111
S11303600E0D1F1D88810E94C6038993C017D107F3
S1130370C9F72A9A8D2DDF91CF911F910F91FF908C
S1130380EF90DF90089580620E949F0108950E947B
S11303909F0108950F931F93CF93DF931F92CDB7BF
S11303A0DEB7F894E9E6F0E0808182608083E89A21
S11303B07894219A229A2A9A29980E94B7032FEFB7
S11303C081EE94E0215080409040E1F700C00000AD
S11303D00FE30093810241E050E061E872E080E0C5
S11303E00E94C3011092810241E050E061E872E092
S11303F081E00E94C30180EF8093810241E050E0DC
S113040061E872E084E00E94C3011092810241E03D
S113041050E061E872E082E00E94C30184E78093C7
S1130420810241E050E061E872E085E00E94C3018E
S11304308EE08093810241E050E061E872E086E062
S11304400E94C30110E71093810241E050E061E88B
S113045072E087E00E94C3010093810241E050E012
S113046061E872E08CE10E94C30184E08093810220
S113047041E050E061E872E08DE10E94C30119831C
S113048040E050E060E070E082EE0E94C30140E092
S113049050E060E070E081EE0E94C30145E050E06E
S11304A065E071E08AE00E94C30145E050E060E04D
S11304B071E080E10E94C30141E050E0BE016F5F42
S11304C07F4F82E00E94C30189818160898341E07A
S11304D050E0BE016F5F7F4F82E00E94C3010F9026
S11304E0DF91CF911F910F9108951F93CF93DF93C5
S11304F01F92CDB7DEB7182F41E050E0BE016F5F09
S11305007F4F80E00E94C701133071F128F411304D
S113051059F01230E9F05EC0153009F447C0D0F14B
S1130520163009F445C056C0898181FD53C08260EC
S11305308093810241E050E061E872E080E00E9433
S1130540C3018FE39FE10197F1F700C0000042C0AF
S113055089818D7F8093810241E050E061E872E0FF
S113056080E00E94C30136C089818160809381024A
S113057041E050E061E872E080E00E94C30180E75E
S11305808093810241E050E061E872E087E00E94DC
S1130590C30120C089818E7F8093810241E050E0B5
S11305A061E872E080E00E94C30114C0299812C07F
S11305B089818E7F8093810241E050E061E872E09E
S11305C080E00E94C301299A87E592E00197F1F740
S11305D000C000000F90DF91CF911F91089583E038
S11305E00E947502299A87E592E00197F1F700C00D
S11305F000000895CF92DF92EF92FF920F931F9322
S1130600CF93DF93CDB7DEB7A0970FB6F894DEBFD4
S11306100FBECDBF6C016894FF24F5F8CE0101969E
S1130620FC012F2D11922A95E9F7B6010E94FA03D5
S1130630F60101900020E9F731978F010C191D098B
S113064084E00E94750240E050E060E070E082EED9
S11306500E94C30140E050E060E070E081EE0E943F
S1130660C301F092810241E050E061E872E087E06A
S11306700E94C30141E050E061E872E080E00E9422
S1130680C7018091810280648093810241E050E03F
S113069061E872E080E00E94C3012A9880EB0E9426
S11306A0C103EFEFE00F002381F08601EE2EF12C61
S11306B0F70131967601EE0EFF1EF80181918F014C
S11306C00E94C1030E151F05C1F780E00E94C103FB
S11306D02A9A299AF0E5FA95F1F7299841E050E031
S11306E061E872E087E00E94C7018091810285FD84
S11306F00BC041E050E061E872E087E00E94C7016E
S11307008091810285FFF5CFCE0101969F938F934F
S113071084E692E09F938F930E94010441E050E0AD
S113072061E872E080E00E94C701809181028F7BC2
S11307308093810241E050E061E872E080E00E9431
S1130740C3010E94EF020F900F900F900F9081E071
S1130750A0960FB6F894DEBF0FBECDBFDF91CF9148
S11307601F910F91FF90EF90DF90CF900895249800
S113077084B1886284B980E58CBD8DB581608DBDFE
S113078008958EBD0DB407FEFDCF08958EBD0DB442
S113079007FEFDCF8EB50895CF93C82F8A3019F484
S11307A08DE00E94CC03E0ECF0E0808185FFFDCF7A
S11307B0C093C60080E090E0CF910895E0ECF0E0B3
S11307C080818823ECF78091C60090E00895109210
S11307D0C50087E68093C40088E18093C100E2E805
S11307E0F2E088E191E0938382838AE091E091834F
S11307F080830895FB01DC0101900D920020E1F754
S11308000895A0E0B0E0E7E0F4E00C940A07AE013C
S11308104B5F5F4FFA0161917191AF018091840246
S1130820909185020E946904E2E00C9426070F93DC
S11308301F93CF93DF93E0918402F091850223818B
S113084021FF1BC08C01D0E0C0E0F80181918F0131
S11308506091840270918502DB011896ED91FC9100
S11308601997882331F00995892B79F3DFEFCFEFBE
S1130870ECCF8AE00995892B19F08FEF9FEF02C026
S11308808D2F9C2FDF91CF911F910F910895AEE092
S1130890B0E0EDE4F4E00C9408070D891E8986E0CD
S11308A08C831A8309838FEF9FE79E838D83AE0128
S11308B0475E5F4F6F89788DCE0101960E9469046F
S11308C0EF81F885E00FF11F10822E96E4E00C947E
S11308D02407ABE0B0E0EFE6F4E00C94FA066C0118
S11308E07B018A01FC0117821682838181FFCCC1BE
S11308F0CE0101963C01F6019381F70193FD8591A8
S113090093FF81917F01882309F4BAC1853239F4B8
S113091093FD859193FF81917F01853229F4B6017E
S113092090E00E946006E7CF912C212C312CFFE14E
S1130930F315D8F08B3279F038F4803279F08332C1
S1130940A1F4232D20611DC08D3261F0803369F440
S1130950232D216016C0832D8260382EE32DE460A0
S11309603E2E2AC0F32DF8601DC037FC2DC020EDAB
S1130970280F2A3040F08E32B9F436FC81C1232D81
S11309802064322E19C036FE06C08AE0989E200DDF
S11309901124922E11C0EAE02E9E200D1124222E45
S11309A0F32DF0623F2E08C08C3621F4832D80682D
S11309B0382E02C0883641F4F70193FD859193FFE8
S11309C081917F018111B3CF982F9F7D95549330EE
S11309D028F40C5F1F4F9FE399830DC0833631F0D9
S11309E0833771F0833509F059C021C0F801808143
S11309F089830E5F1F4F88248394912C530113C065
S1130A002801F2E04F0E511CF801A080B18036FE9F
S1130A1003C0692D70E002C06FEF7FEFC5010E9433
S1130A2055064C018201F32DFF773F2E16C0280195
S1130A3022E0420E511CF801A080B18036FE03C0B2
S1130A40692D70E002C06FEF7FEFC5010E944A0676
S1130A504C01F32DF0683F2E820133FC1BC0822D24
S1130A6090E088169906B0F4B60180E290E00E9406
S1130A7060062A94F4CFF50137FC859137FE819105
S1130A805F01B60190E00E94600621102A9421E0E3
S1130A90821A91088114910471F7E8C0843611F028
S1130AA0893641F5F80137FE07C060817181828182
S1130AB093810C5F1F4F08C060817181072E000C69
S1130AC0880B990B0E5F1F4FF32DFF763F2E97FF78
S1130AD009C090958095709561957F4F8F4F9F4F7A
S1130AE0F0683F2E2AE030E0A3010E949C06882E85
S1130AF0861845C0853731F4232D2F7EB22E2AE087
S1130B0030E025C0932D997FB92E8F36C1F018F4AB
S1130B10883579F0B5C0803719F0883721F0B0C036
S1130B20E92FE061BE2EB4FE0DC0FB2DF460BF2E94
S1130B3009C034FE0AC0292F2660B22E06C028E060
S1130B4030E005C020E130E002C020E132E0F801ED
S1130B50B7FE07C060817181828193810C5F1F4F52
S1130B6006C06081718180E090E00E5F1F4FA30199
S1130B700E949C06882E8618FB2DFF773F2E36FE9A
S1130B800DC0232D2E7FA22E891458F434FE0BC0E1
S1130B9032FC09C0832D8E7EA82E05C0B82CA32C50
S1130BA003C0B82C01C0B92CA4FE0FC0FE01E80D8F
S1130BB0F11D8081803321F49A2D997EA92E09C0DC
S1130BC0A2FE06C0B394B39404C08A2D867809F0BB
S1130BD0B394A3FC11C0A0FE06C0B21488F4280C80
S1130BE0922C9B180EC0B21460F4B60180E290E01F
S1130BF00E946006B394F7CFB21418F42B1802C005
S1130C00982C212CA4FE10C0B60180E390E00E9431
S1130C106006A2FE17C0A1FC03C088E790E002C0F2
S1130C2088E590E0B6010CC08A2D867859F0A1FEC3
S1130C3002C08BE201C080E2A7FC8DE2B60190E025
S1130C400E946006891438F4B60180E390E00E94A3
S1130C5060069A94F7CF8A94F301E80DF11D808120
S1130C60B60190E00E9460068110F5CF222009F4BD
S1130C7042CEB60180E290E00E9460062A94F6CF4C
S1130C80F6018681978102C08FEF9FEF2B96E2E1F8
S1130C900C941607FC010590615070400110D8F7C0
S1130CA0809590958E0F9F1F0895FC0161507040B0
S1130CB001900110D8F7809590958E0F9F1F08958D
S1130CC00F931F93CF93DF93FB01238121FD03C077
S1130CD08FEF9FEF2CC022FF16C0468157812481DD
S1130CE035814217530744F4A081B1819D012F5FE0
S1130CF03F4F318320838C93268137812F5F3F4F71
S1130D003783268314C08B01EC01FB010084F18539
S1130D10E02D0995892BE1F6D80116968D919C91C9
S1130D201797019617969C938E931697CE01DF9191
S1130D30CF911F910F910895FA01AA27283051F1FC
S1130D40203181F1E8946F936E7F6E5F7F4F8F4FF8
S1130D509F4FAF4FB1E03ED0B4E03CD0670F781F57
S1130D60891F9A1FA11D680F791F8A1F911DA11D3C
S1130D706A0F711D811D911DA11D20D009F4689475
S1130D803F912AE0269F11243019305D3193DEF61D
S1130D90CF010895462F4770405D4193B3E00FD0D3
S1130DA0C9F7F6CF462F4F70405D4A3318F0495DBE
S1130DB031FD4052419302D0A9F7EACFB4E0A695A1
S1130DC09795879577956795BA95C9F700976105C3
S1130DD0710508959B01AC010A2E06945795479519
S1130DE037952795BA95C9F7620F731F841F951F0E
S1130DF0A01D08952F923F924F925F926F927F921F
S1130E008F929F92AF92BF92CF92DF92EF92FF9216
S1130E100F931F93CF93DF93CDB7DEB7CA1BDB0BC2
S1130E200FB6F894DEBF0FBECDBF09942A88398867
S1130E3048885F846E847D848C849B84AA84B9846E
S1130E40C884DF80EE80FD800C811B81AA81B9817A
S1130E50CE0FD11D0FB6F894DEBF0FBECDBFED018E
S1090E600895F894FFCF91
S1130E6642424242427373737373000000010000EE
S1130E7600000000DE030000000000020000000085
S1130E86CC0300000000537461727475702073758E
S1130E96636365737366756C0A0A206E5246323450
S1130EA64C30312B20636F6E6669677572656420FA
S1130EB661733A002D2D2D2D2D2D2D2D2D2D2D2DFE
S1130EC62D2D2D2D2D2D2D2D2D2D2D2D2D2D2D2D48
S1130ED62D2D2D2D2D2D2D2D2D2D2D2D2D2D2D0065
S1130EE6434F4E4649470909093078253032580A96
S1130EF600454E5F41410909093078253032580AC8
S1130F0600454E5F52584144445209093078253011
S1130F1632580A0053455455505F524554520909F4
S1130F263078253032580A0052465F434809090989
S1130F363078253032580A0052465F53455455508E
S1130F4609093078253032580A0053544154555310
S1130F560909093078253032580A00464541545566
S1130F6652450909093078253032580A002D2D2DAD
S1130F762D2D2D2D2D2D2D2D2D2D2D2D2D2D2D2D97
S1130F862D2D2D2D2D2D2D2D2D2D2D2D2D2D2D2D87
S1130F962D2D2D2D2D2D2D2D0A004869203A292081
S1130FA621007374617274206C697374656E696E62
S1130FB66700446F6E65206C697374656E696E674D
S1130FC6002564004D6573736167652073656E74EF
S1110FD63A2025730A006661696C65640000A8
S9030000FC
