:100000000C9434000C9453000C9451000C94510047
:100010000C9451000C9451000C9451000C9451001C
:100020000C9451000C9451000C9451000C9451000C
:100030000C9451000C9451000C9451000C945100FC
:100040000C9451000C9451000C9451000C945100EC
:100050000C9451000C9451000C9451000C945100DC
:100060000C9451000C94510011241FBECFEFD8E026
:10007000DEBFCDBF12E0A0E0B1E0E6E1FEE002C0ED
:1000800005900D92AE3BB107D9F722E0AEEBB2E09E
:1000900001C01D92A93EB207E1F70E9404010C9431
:1000A00009070C9400001F920F920FB60F921124B3
:1000B0008F9381E08093BF028F910F900FBE0F90BE
:1000C0001F901895CF93DF931F92CDB7DEB786E2CE
:1000D00091E00E94110484E591E00E94110441E046
:1000E00050E0BE016F5F7F4F80E00E9489018981EF
:1000F0001F928F9380E891E09F938F930E94FB0360
:1001000041E050E0BE016F5F7F4F81E00E948901B6
:1001100089811F928F9381E991E09F938F930E9431
:10012000FB0341E050E0BE016F5F7F4F82E00E9421
:10013000890189811F928F9381EA91E09F938F9328
:100140000E94FB0341E050E0BE016F5F7F4F84E0FF
:100150000E94890189811F928F9384EB91E09F9384
:100160008F930E94FB0341E050E0BE016F5F7F4F21
:1001700085E00E94890189811F928F9388EC91E02C
:100180009F938F930E94FB0341E050E0BE016F5F9D
:100190007F4F86E00E94890189811F928F9388EDAD
:1001A00091E09F938F930E94FB0341E050E0BE01DA
:1001B0006F5F7F4F87E00E94890189811F928F9333
:1001C0008AEE91E09F938F930E94FB0341E050E001
:1001D000BE016F5F7F4F8DE10E94890189811F926F
:1001E0008F938BEF91E09F938F930E94FB030FB649
:1001F000F894DEBF0FBECDBF8DE092E00E941104E7
:100200000F90DF91CF910895CF93DF93CDB7DEB7F5
:10021000A0970FB6F894DEBF0FBECDBF88E0EAE32B
:10022000F2E0DE01119601900D928A95E1F70E94AD
:10023000E1030E948C010E94620082E492E00E942D
:1002400011040E94B10282E592E00E941104109212
:10025000E1021092E00205E712E0FF24F39480919E
:10026000BF028823E1F381E692E00E94110410921C
:10027000BF020E9479039F938F931F930F930E9455
:10028000FB032FEF89E698E1215080409040E1F791
:1002900000C00000CE0101960E94BC029F2D0F906D
:1002A0000F900F900F90811101C090E09093BE02CB
:1002B0008091BE02882399F28BE892E00E9411049B
:1002C000CECFDF92EF92FF920F931F93CF93DF93E6
:1002D0007B018A012A980E94C003D82E01151105BE
:1002E00051F0E7010E0D1F1D88810E94C003899304
:1002F000C017D107C9F72A9A8D2DDF91CF911F9191
:100300000F91FF90EF90DF90089580620E9461014D
:1003100008950E94610108950F931F93CF93DF9377
:100320001F92CDB7DEB7F894E9E6F0E080818260F5
:100330008083E89A7894219A229A2A9A29980E948E
:10034000B1032FEF81EE94E0215080409040E1F71F
:1003500000C000000FE30093E20241E050E062EED3
:1003600072E080E00E9485011092E20241E050E0DC
:1003700062EE72E081E00E94850180EF8093E202EC
:1003800041E050E062EE72E084E00E94850110924C
:10039000E20241E050E062EE72E082E00E948501FC
:1003A00084E78093E20241E050E062EE72E085E093
:1003B0000E9485018EE08093E20241E050E062EE0F
:1003C00072E086E00E94850110E71093E20241E0AE
:1003D00050E062EE72E087E00E9485010093E20245
:1003E00041E050E062EE72E08CE10E94850184E021
:1003F0008093E20241E050E062EE72E08DE10E9403
:100400008501198340E050E060E070E082EE0E94D8
:10041000850140E050E060E070E081EE0E948501DF
:1004200045E050E065E071E08AE00E94850145E02A
:1004300050E060E071E080E10E94850141E050E021
:10044000BE016F5F7F4F82E00E94850189818160DC
:10045000898341E050E0BE016F5F7F4F82E00E94E0
:1004600085010F90DF91CF911F910F9108951F93F8
:10047000CF93DF931F92CDB7DEB7182F41E050E046
:10048000BE016F5F7F4F80E00E948901133071F1E0
:1004900028F4113059F01230E9F05EC0153009F43B
:1004A00047C0D0F1163009F445C056C0898181FD9E
:1004B00053C082608093E20241E050E062EE72E05D
:1004C00080E00E9485018FE39FE10197F1F700C072
:1004D000000042C089818D7F8093E20241E050E0BC
:1004E00062EE72E080E00E94850136C08981816001
:1004F0008093E20241E050E062EE72E080E00E9410
:10050000850180E78093E20241E050E062EE72E014
:1005100087E00E94850120C089818E7F8093E2025E
:1005200041E050E062EE72E080E00E94850114C07C
:10053000299812C089818E7F8093E20241E050E0C9
:1005400062EE72E080E00E948501299A87E592E0E0
:100550000197F1F700C000000F90DF91CF911F913C
:10056000089583E00E943702299A87E592E0019777
:10057000F1F700C000000895CF92DF92EF92FF9252
:100580000F931F93CF93DF93CDB7DEB7A0970FB62E
:10059000F894DEBF0FBECDBF6C016894FF24F5F860
:1005A000CE010196FC012F2D11922A95E9F7B60193
:1005B0000E94F403F60101900020E9F731978F01C2
:1005C0000C191D0984E00E94370240E050E060E011
:1005D00070E082EE0E94850140E050E060E070E053
:1005E00081EE0E948501F092E20241E050E062EE6D
:1005F00072E087E00E94850141E050E062EE72E027
:1006000080E00E9489018091E20280648093E2028E
:1006100041E050E062EE72E080E00E9485012A989D
:1006200080EB0E94BB03EFEFE00F002381F0860117
:10063000EE2EF12CF70131967601EE0EFF1EF80139
:1006400081918F010E94BB030E151F05C1F780E049
:100650000E94BB032A9A299AF0E5FA95F1F72998A6
:1006600041E050E062EE72E087E00E9489018091F3
:10067000E20285FD0BC041E050E062EE72E087E0EF
:100680000E9489018091E20285FFF5CFCE0101969B
:100690009F938F9385EA92E09F938F930E94FB0331
:1006A00041E050E062EE72E080E00E9489018091BA
:1006B000E2028F7B8093E20241E050E062EE72E062
:1006C00080E00E9485010E94B1020F900F900F9070
:1006D0000F9081E0A0960FB6F894DEBF0FBECDBF9D
:1006E000DF91CF911F910F91FF90EF90DF90CF900E
:1006F000089580E2E0ECF2E0DF011D928A95E9F7CF
:1007000041E050E062EE72E080E60E948901409193
:10071000E202442341F050E04F5F5F4F60EC72E033
:1007200081E60E9461018091C002882369F080E423
:100730008093E20241E050E062EE72E087E00E94C6
:10074000850180EC92E0089580E48093E20241E02C
:1007500050E062EE72E087E00E94850187EB92E054
:100760000895249884B1886284B980E58CBD8DB5E4
:1007700081608DBD08958EBD0DB407FEFDCF089537
:100780008EBD0DB407FEFDCF8EB50895CF93C82F53
:100790008A3019F48DE00E94C603E0ECF0E080811D
:1007A00085FFFDCFC093C60080E090E0CF91089513
:1007B000E0ECF0E080818823ECF78091C60090E0C7
:1007C00008951092C50087E68093C40088E1809365
:1007D000C100E3EEF2E088E191E0938382838AE056
:1007E00091E0918380830895FB01DC0101900D92DB
:1007F0000020E1F70895A0E0B0E0E1E0F4E00C941F
:10080000E206AE014B5F5F4FFA0161917191AF015A
:100810008091E5029091E6020E944104E2E00C948E
:10082000FE060F931F93CF93DF93E091E502F091C3
:10083000E602238121FF1BC08C01D0E0C0E0F8015B
:1008400081918F016091E5027091E602DB011896BB
:10085000ED91FC911997882331F00995892B79F353
:10086000DFEFCFEFECCF8AE00995892B19F08FEFFE
:100870009FEF02C08D2F9C2FDF91CF911F910F9181
:100880000895ABE0B0E0E7E4F4E00C94D2066C012C
:100890007B018A01FC0117821682838181FFCCC112
:1008A000CE0101963C01F6019381F70193FD8591FC
:1008B00093FF81917F01882309F4BAC1853239F40D
:1008C00093FD859193FF81917F01853229F4B601D3
:1008D00090E00E943806E7CF912C212C312CFFE1CB
:1008E000F315D8F08B3279F038F4803279F0833216
:1008F000A1F4232D20611DC08D3261F0803369F495
:10090000232D216016C0832D8260382EE32DE460F4
:100910003E2E2AC0F32DF8601DC037FC2DC020EDFF
:10092000280F2A3040F08E32B9F436FC81C1232DD5
:100930002064322E19C036FE06C08AE0989E200D33
:100940001124922E11C0EAE02E9E200D1124222E99
:10095000F32DF0623F2E08C08C3621F4832D806881
:10096000382E02C0883641F4F70193FD859193FF3C
:1009700081917F018111B3CF982F9F7D9554933042
:1009800028F40C5F1F4F9FE399830DC0833631F02D
:10099000833771F0833509F059C021C0F801808197
:1009A00089830E5F1F4F88248394912C530113C0B9
:1009B0002801F2E04F0E511CF801A080B18036FEF4
:1009C00003C0692D70E002C06FEF7FEFC5010E9488
:1009D0002D064C018201F32DFF773F2E16C0280112
:1009E00022E0420E511CF801A080B18036FE03C007
:1009F000692D70E002C06FEF7FEFC5010E942206F3
:100A00004C01F32DF0683F2E820133FC1BC0822D78
:100A100090E088169906B0F4B60180E290E00E945A
:100A200038062A94F4CFF50137FC859137FE819181
:100A30005F01B60190E00E94380621102A9421E05F
:100A4000821A91088114910471F7E8C0843611F07C
:100A5000893641F5F80137FE07C0608171818281D6
:100A600093810C5F1F4F08C060817181072E000CBD
:100A7000880B990B0E5F1F4FF32DFF763F2E97FFCC
:100A800009C090958095709561957F4F8F4F9F4FCE
:100A9000F0683F2E2AE030E0A3010E947406882E01
:100AA000861845C0853731F4232D2F7EB22E2AE0DB
:100AB00030E025C0932D997FB92E8F36C1F018F400
:100AC000883579F0B5C0803719F0883721F0B0C08B
:100AD000E92FE061BE2EB4FE0DC0FB2DF460BF2EE9
:100AE00009C034FE0AC0292F2660B22E06C028E0B5
:100AF00030E005C020E130E002C020E132E0F80142
:100B0000B7FE07C060817181828193810C5F1F4FA6
:100B100006C06081718180E090E00E5F1F4FA301ED
:100B20000E947406882E8618FB2DFF773F2E36FE16
:100B30000DC0232D2E7FA22E891458F434FE0BC035
:100B400032FC09C0832D8E7EA82E05C0B82CA32CA4
:100B500003C0B82C01C0B92CA4FE0FC0FE01E80DE3
:100B6000F11D8081803321F49A2D997EA92E09C030
:100B7000A2FE06C0B394B39404C08A2D867809F00F
:100B8000B394A3FC11C0A0FE06C0B21488F4280CD4
:100B9000922C9B180EC0B21460F4B60180E290E073
:100BA0000E943806B394F7CFB21418F42B1802C081
:100BB000982C212CA4FE10C0B60180E390E00E9486
:100BC0003806A2FE17C0A1FC03C088E790E002C06F
:100BD00088E590E0B6010CC08A2D867859F0A1FE18
:100BE00002C08BE201C080E2A7FC8DE2B60190E07A
:100BF0000E943806891438F4B60180E390E00E9420
:100C000038069A94F7CF8A94F301E80DF11D80819C
:100C1000B60190E00E9438068110F5CF222009F439
:100C200042CEB60180E290E00E9438062A94F6CFC8
:100C3000F6018681978102C08FEF9FEF2B96E2E14C
:100C40000C94EE06FC010590615070400110D8F73D
:100C5000809590958E0F9F1F0895FC016150704004
:100C600001900110D8F7809590958E0F9F1F0895E1
:100C70000F931F93CF93DF93FB01238121FD03C0CB
:100C80008FEF9FEF2CC022FF16C046815781248131
:100C900035814217530744F4A081B1819D012F5F34
:100CA0003F4F318320838C93268137812F5F3F4FC5
:100CB0003783268314C08B01EC01FB010084F1858E
:100CC000E02D0995892BE1F6D80116968D919C911E
:100CD0001797019617969C938E931697CE01DF91E6
:100CE000CF911F910F910895FA01AA27283051F151
:100CF000203181F1E8946F936E7F6E5F7F4F8F4F4D
:100D00009F4FAF4FB1E03ED0B4E03CD0670F781FAB
:100D1000891F9A1FA11D680F791F8A1F911DA11D90
:100D20006A0F711D811D911DA11D20D009F46894C9
:100D30003F912AE0269F11243019305D3193DEF671
:100D4000CF010895462F4770405D4193B3E00FD027
:100D5000C9F7F6CF462F4F70405D4A3318F0495D12
:100D600031FD4052419302D0A9F7EACFB4E0A695F5
:100D70009795879577956795BA95C9F70097610517
:100D8000710508959B01AC010A2E0694579547956D
:100D900037952795BA95C9F7620F731F841F951F62
:100DA000A01D08952F923F924F925F926F927F9273
:100DB0008F929F92AF92BF92CF92DF92EF92FF926B
:100DC0000F931F93CF93DF93CDB7DEB7CA1BDB0B17
:100DD0000FB6F894DEBF0FBECDBF09942A883988BC
:100DE00048885F846E847D848C849B84AA84B984C3
:100DF000C884DF80EE80FD800C811B81AA81B981CF
:100E0000CE0FD11D0FB6F894DEBF0FBECDBFED01E2
:060E10000895F894FFCFE5
:100E16004242424242737373737300000001000042
:100E260000000000D80300000000000200000000DF
:100E3600C6030000000053746172747570207375E8
:100E4600636365737366756C0A0A206E52463234A4
:100E56004C30312B20636F6E66696775726564204E
:100E660061733A002D2D2D2D2D2D2D2D2D2D2D2D52
:100E76002D2D2D2D2D2D2D2D2D2D2D2D2D2D2D2D9C
:100E86002D2D2D2D2D2D2D2D2D2D2D2D2D2D2D00B9
:100E9600434F4E4649470909093078253032580AEA
:100EA60000454E5F41410909093078253032580A1C
:100EB60000454E5F52584144445209093078253066
:100EC60032580A0053455455505F52455452090949
:100ED6003078253032580A0052465F4348090909DE
:100EE6003078253032580A0052465F5345545550E3
:100EF60009093078253032580A0053544154555365
:100F06000909093078253032580A004645415455BA
:100F160052450909093078253032580A002D2D2D01
:100F26002D2D2D2D2D2D2D2D2D2D2D2D2D2D2D2DEB
:100F36002D2D2D2D2D2D2D2D2D2D2D2D2D2D2D2DDB
:100F46002D2D2D2D2D2D2D2D0A004869203A2920D5
:100F560021007374617274206C697374656E696EB6
:100F66006700446F6E65206C697374656E696E67A1
:100F760000696E7369646520696620636F6E6469D3
:100F860074696F6E005265636569766564206D6588
:100F960073736167653A2025730A004D6573736143
:100FA60067652073656E7420737563636573736616
:100FB600756C6C79004D6573736167652073656E3A
:0E0FC600743A2025730A006661696C65640048
:00000001FF
